S01500004D575F54687265655F53746174652E6D6F7411
S1130000007000206D040000AD040000AD04000089
S1130010AD040000AD040000AD04000000000000C9
S1130020000000000000000000000000AD0400001B
S1130030AD04000000000000AD040000B176000033
S1130040ED430000F94300000544000011440000A2
S11300501D440000294400003544000041440000D0
S11300604D44000059440000654400007144000000
S11300707D4400008944000095440000A144000030
S1130080AD440000AD040000AD040000AD04000068
S1130090AD040000AD040000AD040000AD04000098
S11300A0AD040000AD040000AD040000AD04000088
S11300B0AD040000AD040000AD040000AD04000078
S11300C0AD040000AD040000AD040000AD04000068
S11300D0AD040000AD040000AD040000AD04000058
S11300E0AD040000AD040000AD040000AD04000048
S11300F0AD040000AD040000AD040000AD04000038
S1130100F5750000AD040000AD040000AD0400006E
S1130110AD040000AD040000AD040000AD04000017
S1130120AD040000AD040000AD040000AD04000007
S1130130AD040000AD040000AD040000AD040000F7
S1130140AD040000AD040000AD040000AD040000E7
S1130150AD040000AD040000AD040000AD040000D7
S1130160AD040000AD040000AD040000AD040000C7
S1130170AD040000AD040000AD040000AD040000B7
S1130180AD040000AD040000AD040000AD040000A7
S1130190AD040000AD040000AD040000AD04000097
S11301A0AD040000AD040000AD040000AD04000087
S11301B0AD040000AD040000AD040000AD04000077
S11301C0AD040000AD040000AD04000001530000C4
S11301D00D5300001953000025530000AD04000026
S11301E0AD040000315300003D53000049530000AA
S11301F055530000AD040000AD040000615300003D
S11302006D5300007953000085530000AD040000D5
S1130210AD040000915300009D530000A953000059
S1130220B5530000AD040000AD040000AD040000AF
S1130230AD040000AD040000AD040000AD040000F6
S1130240AD040000AD040000AD040000AD040000E6
S1130250AD040000AD040000AD040000AD040000D6
S1130260AD040000AD040000AD040000AD040000C6
S1130270AD040000AD040000AD040000AD040000B6
S1130280AD040000AD040000AD040000AD040000A6
S1130290AD040000AD040000AD040000AD04000096
S11302A0AD040000AD040000AD040000AD04000086
S11302B0AD040000AD040000AD040000AD04000076
S11302C0AD040000AD040000AD040000AD04000066
S11302D0AD040000AD040000AD040000AD04000056
S11302E0AD040000AD040000AD040000AD04000046
S11302F0AD040000AD040000AD040000AD04000036
S1130300AD040000AD040000AD040000AD04000025
S1130310AD040000AD040000AD040000AD04000015
S1130320AD040000AD040000AD040000AD04000005
S1130330AD040000AD040000AD040000AD040000F5
S1130340AD040000AD040000AD040000AD040000E5
S1130350AD040000AD040000AD040000AD040000D5
S1130360AD040000AD040000AD040000AD040000C5
S1130370AD040000AD040000AD040000AD040000B5
S1130380AD040000AD040000AD040000AD040000A5
S1130390AD040000AD040000AD040000AD04000095
S11303A0AD040000AD040000AD040000AD04000085
S11303B0AD040000AD040000AD040000AD04000075
S11303C0AD040000AD040000AD040000AD04000065
S11303D0AD040000AD040000AD040000AD04000055
S11303E0AD040000AD040000AD040000AD04000045
S11303F0AD040000AD040000AD040000FFFFFFFFEA
S1130400FFFFFFFFFFFFFFFFFFFFFFFFFE7FFFFF79
S113041010B5054C237833B9044B13B10448AFF33A
S113042000800123237010BD0000002000000000A4
S1130430C8960000084B10B51BB108480849AFF333
S113044000800848036803B910BD074B002BFBD09C
S1130450BDE81040184700BF00000000C896000027
S1130460040000204889FF1F0000000072B60B49F9
S11304700A4A0A4B094C094D084E084FB846B9467A
S1130480BA46BB46BC4606488546064880470648E9
S1130490804762B607F0F8F8FEE7000000000000AD
S11304A0007000203D88000065870000FFF7FEBF54
S11304B070B582B04849B1F85C309B0003F18043C9
S11304C003F5CA231A6842F080421A60434A106A4C
S11304D020F4E06040F400701062186840F080403E
S11304E01860506A20F4E06040F4007050621868AC
S11304F040F080401860906A20F4E06040F400709E
S11305009062186840F080401860D36A23F4E06376
S113051043F40073D362B1F85E309B0003F180436F
S113052003F5CA231A6842F080421A602C48826A92
S113053022F4E06242F4007282621A6842F080425D
S11305401A60C36A23F4E06343F40073C362B1F82E
S11305507E304FF08C41234A42F823109B0003F174
S1130560804303F5CA231A6842F080421A600320CC
S11305701D491E4A04F0C4FA03201D4905F028F859
S11305801C4E30460121002204F076FB0024009426
S113059001250195032029462246234604F096FFAF
S11305A030460321224604F067FB009401950320A2
S11305B002212246234604F089FF304605212246C3
S11305C004F05AFB00940195032001462246234679
S11305D004F07CFF02B070BDDC94000000A0044075
S11305E000B0044000500640B484FF1FBC0100204A
S11305F0C884FF1F0060024070B52DED028B84B0EB
S11306003D4CD4ED077A9FED3D8A67EE887AFCEE87
S1130610E77A0025009501260196032029462A46FB
S1130620CDED037ABDF80C3004F050FFD4ED087A18
S113063067EE887AFCEEE77A00950196032031464E
S11306402A46CDED037ABDF80C3004F03FFFD4ED1B
S1130650097A67EE887AFCEEE77A00950196032022
S113066002212A46CDED037ABDF80C3004F02EFFAA
S1130670D4ED0A7A67EE887AFCEEE77A0095019663
S1130680032001462A46CDED037ABDF80C3004F070
S11306901DFFD4ED0B7A67EE887AFCEEE77A0095BD
S11306A00196032004212A46CDED037ABDF80C30CF
S11306B004F00CFFD4ED0C7A27EE888ABCEEC88ACD
S11306C000950196032005212A468DED038ABDF885
S11306D00C3004F0FBFEE3696363236AA363636A7B
S11306E0E363A36A2364E36A6364236BA36404B0CF
S11306F0BDEC028B70BD00BFEC0000200000004781
S11307002D4B00221A725A7201209872D87202215B
S1130710197359739A73DA731A7458749974DA746E
S11307201A7558759975DA751A7659769A76D9764E
S113073018775A779877DA7783F8202083F821207E
S113074083F8221083F8231083F8240083F825000B
S113075083F8262083F8272083F8282083F829109B
S113076083F82A0083F82B2083F82C2083F82D109B
S113077083F82E0083F82F2083F8302083F831008B
S113078083F8322083F8330083F8341083F835205B
S113079083F8361083F83720084B83F84E2083F80B
S11307A04F2083F850200022DA611A625A629A625A
S11307B0DA621A63704700BF64010020EC00002075
S11307C008B5FFF775FE08BD08B54D4BD3ED067AA5
S11307D09FED4C7A67EE877AF5EEC07AF1EE10FA67
S11307E07CDA6CE0464B93F84E10474A117093F84C
S11307F04F204648027093F8503045480370B7EED6
S1130800007AF4EEC77AF1EE10FA09DCBFEE007A52
S1130810F4EE477AF1EE10FA48BFF0EE477A01E0C1
S1130820F7EE007AF0EEE77A3A48C0ED007A012953
S113083008D011B102290BD010E031490020C86161
S113084008620BE02E490020C861C1ED087A05E07A
S11308502B494FF07E50C86100200862012A08D05D
S113086012B1022A0BD010E0254A00215162916294
S11308700BE0234A00215162C2ED0A7A05E0204AC6
S11308804FF07E51516200219162012B08D013B1C7
S1130890022B0BD010E01A4B0022DA621A630BE031
S11308A0174B0022DA62C3ED0C7A05E0144B4FF0CB
S11308B07E52DA6200221A63FFF79EFE08BD104AD8
S11308C092F84D3014490B44197A82F84E10197C71
S11308D082F84F101B7E82F8503083E7084A92F862
S11308E04D300D490B4493F8201082F84E1093F8C4
S11308F0281082F84F1093F8303082F8503071E7A6
S1130900EC000020ABAAAA3D5D010020600100209C
S11309105F010020A40100206401002008B5044BFD
S1130920002283F8382083F83920FFF7E9FE08BD58
S11309306401002008B5FFF7BBFD08BD08B56A4B8C
S113094093F838306BB9684A012382F8383082F85A
S11309503930002265490A7065490A70654A137086
S1130960B2E0614B93F83930013B092B00F2A080CF
S1130970DFE803F0052B3845515E6B788591002341
S11309805A4A13705A4A137001225A4B1A705A4B1E
S1130990D3ED067AF5EEC07AF1EE10FA07DB052204
S11309A0514B83F839200122514B1A708CE0F5EE3B
S11309B0C07AF1EE10FA40F1878008224A4B83F89E
S11309C039200122494B1A707EE00422464B83F8F9
S11309D039200022454B1A700123454A1370454AB9
S11309E0137071E00B22404B83F8392001233F4AF6
S11309F013703F4A137000223E4B1A7064E00123C7
S1130A00394A82F83930002238490A7038490A7064
S1130A10384A137058E00322334B83F839200023FB
S1130A20324A13700121324A1170324A13704BE07A
S1130A300A222D4B83F8392001232C4A13702C4AA7
S1130A40137000222B4B1A703EE00922264B83F8C8
S1130A5039200123254A13700021254A1170254AA3
S1130A60137031E00622204B83F8392001221F4BFA
S1130A701A7000231E4A13701E4A137024E00123C7
S1130A80194A82F83930002218490A7018490A7044
S1130A90184A137018E00222134B83F839200023FC
S1130AA0124A13700121124A1170124A13700BE09A
S1130AB007220D4B83F8392001220C4B1A700023B6
S1130AC00B4A13700B4A1370084B1B78084A1278B0
S1130AD008490978520002EB83030B44064A82F862
S1130AE04D30FFF771FE08BD640100205001002065
S1130AF06101002044010020EC00002008B521B968
S1130B0001200449024605F0CDFF034B5A69034B0B
S1130B10DA6008BD3801002000C00640EC00002067
S1130B2030B587B01B4BB3F862309B0003F18043B0
S1130B3003F5CA231A6842F080421A600025029520
S1130B4003950595144B00931023019301248DF80C
S1130B500B408DF80E40114B04938DF81440204641
S1130B60694607F043F88DF800500623ADF80230CB
S1130B70204629466A4600F015FE8DF800500723EA
S1130B80ADF80230204621466A4600F00BFE07B05D
S1130B9030BD00BFDC94000000D0044000F10F40E1
S1130BA030B583B0124C20464FF4803107F0C6F8BC
S1130BB0012000F0B9FE012000210DF1060200F031
S1130BC0C9FE0C4DBDF806302B61012000F0ACFECF
S1130BD0012001460DF1060200F0BCFEBDF806300E
S1130BE06B6120464FF4803107F0AAF803B030BDA2
S1130BF000F10F40EC00002070B5012006F05EFE0D
S1130C00064601200021FF2206F0CEFE0546012003
S1130C100146FF2206F0C8FE04460B4B1E605D60D1
S1130C209860FFF7BDFF16B1012006F051FE25B113
S1130C30012000212A4606F0C5FE24B10120014608
S1130C40224606F0BFFE70BDEC000020F8B52DED85
S1130C50048B824ED6ED057AF8EE677A9FED808A92
S1130C6067EE887A9FED7F8A27EE888A7E4C7F4DD7
S1130C702B682360B0EE480A204607F093FFB0EEDD
S1130C80409A2768D6ED048AF8EE688ADFED787A10
S1130C9078EEE77ADFED778A67EEA88A764C6B68A0
S1130CA02360B0EEE80A204607F07CFF2668F2EEE7
S1130CB0007AB4EEE79AF1EE10FA1CDDF3EE027A54
S1130CC0B4EEE79AF1EE10FA15D5F1EE047AB4EE2B
S1130CD0E70AF1EE10FA0ED50122684B1A70684C3F
S1130CE020464FF4803107F02BF820464FF40041A2
S1130CF007F024F80DE00022604B1A70604C204687
S1130D004FF4803107F01AF820464FF4004107F001
S1130D1017F85C4D284607F017F8C0F3C0304F4C65
S1130D2084F8510080F00100574B1870284607F0F2
S1130D300BF8C0F3004084F8520080F00100534BDC
S1130D401870284607F000F8C0F3400084F85300F8
S1130D5080F001004E4B1870022004F14C01012276
S1130D6005F0B4FF454B1B78DBB284F8543023B153
S1130D702846042106F0E2FF03E04248042106F07D
S1130D80DFFF364B93F8543023B13E48082106F078
S1130D90D5FF03E03B48082106F0D2FF2F4B93F820
S1130DA04C40012C49D0032C4AD0052C14BF0023FD
S1130DB00123042C06D1002B45D0DFED367AB7EEA3
S1130DC0007A01E073BB2AE067EE877AB1EE0A7A13
S1130DD0F4EEC77AF1EE10FA03DD204B83ED067AC8
S1130DE00DE0B9EE0A7AF4EEC77AF1EE10FA03D503
S1130DF01A4B83ED067A02E0184BC3ED067AFFF72F
S1130E009DFD164B9A69244B1A60244BC3ED008A4E
S1130E10234B83ED008A154B1F605E601AE00020AF
S1130E20002101E000201F4907F0CCFE07EE900AE4
S1130E30022CE1D19FED177AC6E700201A4904E09D
S1130E4000201A4901E00020194907F0BBFE07EE13
S1130E50900AD1E7BDEC048BF8BD00BFEC00002084
S1130E60000034420108803924000020640100207D
S1130E7000000045810CC83B1C00002045010020F7
S1130E80C0F00F4000F00F40A00100205C010020E2
S1130E905E01002000000000E8000020580100204E
S1130EA04C01002000001AC00000124000001A404B
S1130EB0000012C02DE9F04F8BB00024D54B1C600C
S1130EC0D5482146582208F09BF90025D34B1D60D4
S1130ED0D34821463C2208F093F9D24B1D60D24BF3
S1130EE01D60D24B1D60D24B1C70D24B1C70D24B78
S1130EF01C70D24B1C70D24B1C70D24B1C70D24B4A
S1130F001C70D24A1470D24A1470D24A147001254B
S1130F101D70DFF868B3BBF85E804FEA880808F1FB
S1130F20804808F5CA28D8F8003043F08043C8F850
S1130F300030DFF84CA3DAF8183023F4E06343F40C
S1130F400073CAF81830D8F8003043F08043C8F86A
S1130F500030DAF81C3023F4E06343F40073CAF879
S1130F601C30BBF85A60B60006F1804606F5CA2666
S1130F70336843F080433360DFF80893D9F81830BE
S1130F8023F4E06343F4C063C9F81830336843F0D2
S1130F9080433360D9F81C3023F4E06343F4C06326
S1130FA0C9F81C30BBF89630AB4A4FF08C4142F87C
S1130FB023109B0003F1804303F5CA231A6842F00F
S1130FC080421A60A54B93E8070004AB83E807004E
S1130FD02846A3491A4605F02DFFBBF86070BF00F0
S1130FE007F1804707F5CA273B6843F080433B601D
S1130FF09C4B9B6923F4E06343F40073994A936127
S11310003B6843F080433B60D36923F4E06343F4DB
S11310100073D361D8F8003043F08043C8F800303F
S1131020DAF8303023F4E06343F48063CAF83030F4
S1131030D8F8003043F08043C8F80030DAF8343090
S113104023F4E06343F48063CAF83430BBF8983087
S113105002F5C8324FF08C4142F823109B0003F193
S1131060804303F5CA231A6842F080421A607B4B1E
S113107093E8070004AB83E807000220784B03F1F0
S1131080340104AA05F0D6FE04AB744A52F80C0FDE
S1131090516803C31189927A19809A708DF80840B7
S11310A08DF809408DF80A40ADF80C40ADF80E40BB
S11310B08DF804404FF0020A8DF805A0BBF88410A7
S11310C001FA0AF303F1804303F5CA231A6822F0F4
S11310D080421A60604A4FF08C4042F821001A683E
S11310E042F080421A60284600F0D2FB284604A948
S11310F000F086F92846214600F0A0FB284602A904
S113110000F0CEFA284601A900F01AFB564BDFF88E
S11311107881B8F8001098F8022019809A70204657
S11311204E4B03F1180107F0F3FBBBF870304A4A49
S11311304FF08C4142F8231003FA0AF303F1804381
S113114003F5CA231A6842F080421A602846444BC9
S113115003F1680106F04CFB28464FF4FA5106F0FF
S1131160D1FB284606F084FB2846214608F10402F8
S113117006F0E0FB2846214622460A2306F02CFC12
S11311802846214608F10C0206F0D4FB28462146E5
S11311902A464FF4FA7306F01FFC284606F0A8FB13
S11311A0FFF7BEFC2846214606F0B8FB284606F0A9
S11311B09FFB2E4A136823F4003323F0200343F0EB
S11311C02003136044202A49224604F06DFD442084
S11311D0052104F0AFFD442004F07EFD25484FF0C6
S11311E07853436007F0D2FC23484FF076534360B2
S11311F007F0CCFC3B6843F080433B6006940794C3
S11312000994184B04934FF01008CDF814808DF80E
S11312101B503BE048010020EC000020A40100200A
S113122064010020E80000204C0100205801002047
S11312305001002061010020440100205D010020D4
S1131240600100205F01002045010020A001002072
S11312505C0100205E010020005006408C930000D9
S11312602C00002000C00440540100200010034062
S1131270F90B0000240000201C000020DC94000076
S113128000B00440009004400084FF1F8DF81E50FD
S1131290DFF848B1CDF820B08DF8245028460DEB86
S11312A0080106F0A3FC3B6843F080433B600694CE
S11312B007940994464B04930F2705978DF81B5008
S11312C08DF81E50CDF820B08DF8245028460DEB33
S11312D0080106F08BFC336843F0804333600694C6
S11312E007940994CDF8109005978DF81B508DF84C
S11312F01E50384F089728460DEB080106F076FC7F
S1131300336843F080433360069407940994CDF81E
S11313101090CDF814808DF81B508DF81E5008974E
S113132028460DEB080106F061FC336843F0804366
S11313303360069407940994CDF8109005958DF8C0
S11313401B508DF81E50089728460DEB080106F037
S11313504DFC50462049224605F028FB336843F0F3
S113136080433360069407940994CDF81090CDF827
S113137014A08DF81A508DF81B508DF81E50089744
S11313808DF8245028460DEB080106F02FFC336835
S113139043F080433360069407940994CDF8109089
S11313A0032305938DF81A508DF81B508DF81E50A9
S11313B008978DF8245028460DEB080106F016FC1A
S11313C0FFF7B8FAFFF7AAFA0BB0BDE8F08F00BF39
S11313D000C0044000F00F40FD0A0000C0F00F40C0
S11313E0704700BF002303700C2242708370C370E7
S11313F0037143718371C3710372437283727047C3
S1131400F0B585B006460D465F4B53F820401B8966
S1131410ADF80C300023029304AB034413F8040C1E
S113142002A901F02BFC2B78029ADA400292226C7A
S113143022F060025B0103F06003134323646A78C3
S1131440002A08BF0122636C23F0FF031343636483
S1131450236C23F00C02AB789B0003F00C031343C2
S11314602364236C23F00302EB7803F00303134398
S11314702364D4F8903023F040022B799B0103F0CD
S113148040031343C4F890306B79404903C98DE895
S113149003003F4A926904A901EB860151F8101C2C
S11314A022EA010116B1012E10D01EE01A0102F049
S11314B0300241EA0203364FBB61AA79354903C9B8
S11314C08DE80300BB6923EA000321E01B0303F456
S11314D040530B432E4FBB61AA792E4903C98DE8B3
S11314E00300BB6923EA010316E0294B9961AA7939
S11314F0284903C98DE803009B6904A901EB86010F
S113150051F8101C23EA010316B1012E08D103E09F
S113151002F00102134303E0120202F48072134347
S11315201B4A9361D4F8903023F00403EA79002A2B
S113153014BF042200221343C4F89030D4F890302E
S113154023F003022B7A03F003031343C4F890300F
S1131550D4F8943023F008036A7A002A14BF0822CE
S113156000221343C4F8943066B9AB7A2BB1084A0D
S1131570536843F40023536004E0054A536823F49A
S11315800023536005B0F0BDB0930000BC9300008D
S113159000800440C493000070B485B005460B4637
S11315A0384A52F82020116CC1F341111970516C62
S11315B05970116CC1F38101012904D002290CBFB7
S11315C00221002100E001219970116C01F0030156
S11315D0D970D2F89010C1F3801119712A4903C946
S11315E08DE80300002102910821039127498C69A9
S11315F004A901EB850050F8101C50F8080C214098
S1131600C140012914BF0021012199711D4C04F12D
S11316100C0103C98DE803001C3494E8030004ACF6
S113162004E9030019498C6904A901EB850050F809
S1131630101C214050F8080CC140012904D0022993
S11316400CBF0221002100E001215971D2F8901051
S1131650C1F38001D971D2F8901001F0030119721D
S1131660D2F89420C2F3C0025A722DB9074A5268C4
S1131670C2F3C0429A7201E000229A7205B070BCB3
S1131680704700BFB0930000C49300000080044082
S113169000230370437083708380C380704700BF4E
S11316A0164B53F82030D3F8902022F0200208780B
S11316B0002814BF202000200243C3F89020D3F850
S11316C0902022F010024878002814BF1020002037
S11316D00243C3F89020D3F8902022F008028878BF
S11316E0002814BF082000200243C3F890208A88F1
S11316F0C3F88820CA88C3F88C207047B0930000D0
S11317000C4B53F82030D3F89020C2F340120A70E7
S1131710D3F89020C2F300124A70D3F89020C2F399
S1131720C0028A70D3F888208A80D3F88C30CB80AA
S1131730704700BFB09300000023037043707047EC
S11317400C4B53F82000D0F8943023F004030A78AB
S1131750002A14BF042200221343C0F89430D0F8A6
S1131760943023F003024B7803F003031343C0F8CF
S113177094307047B0930000064B53F82020D2F801
S11317809430C3F380030B70D2F8943003F0030356
S11317904B707047B0930000002303701F234380F5
S11317A0704700BF30B4134B53F82040538815786A
S11317B0A3F5706292B2052A0BD80F4A506820F440
S11317C0E020506050681B0403F4E023034353609B
S11317D0152354F8210003F01F0220F05F03134384
S11317E0002D14BF40220022134344F8213030BCA2
S11317F0704700BFB0930000008004400D4B53F8C5
S1131800200050F82130C3F38013137050F82130B6
S113181003F01F0308494968152B08D111F4002F60
S113182005D0054B5B68C3F3024303F57063538033
S1131830704700BFB09300000080044010B483B030
S113184004460A46104B93E8030002AB03E9030085
S11318500E4B9B6902A901EB840151F8081C23EA91
S1131860010314B1012C05D008E0520002F00E026D
S1131870134303E0520202F460621343034A936188
S113188003B05DF8044B7047D4930000008004401B
S1131890F0B583B00446224B53F8202000231F21C7
S11318A042F823100133102BFAD1002313640C21C6
S11318B05164C2F88830C2F88C30C2F89030C2F853
S11318C09430C2F8A0300421C2F8B010144A02F1D6
S11318D00C0103C98DE80300124DA96902A800EBAD
S11318E0840757F8080C21EA0001A961143292E830
S11318F003008DE80300AA6957F8081C22EA0102D4
S1131900AA6120461946FFF799FF3CB96A6822F498
S113191000226A606A6822F4E0226A6003B0F0BDC3
S1131920B093000000800440044B53F82020D2F808
S1131930903013F0800FFAD1704700BFB0930000CD
S1131940034B53F8203053F82100C0F3C010704704
S1131950B0930000044B53F82030123153F8213077
S1131960C3F30B0313807047B09300002DE9F041DB
S113197082B0434A52F82040D4F89430C3F380072D
S1131980D4F8943003F00306D4F89050C5F38015CE
S1131990D4F8943043F00303C4F89430D4F894306A
S11319A043F00403C4F89430D4F8903023F0400397
S11319B0C4F890300023C4F8B430C4F8B830C4F884
S11319C0BC30C4F8C030C4F8C430C4F8C830C4F85B
S11319D0CC301289ADF804200093226C02F0600828
S11319E002AB184410F8040C694601F047F9009B57
S11319F04FEA581223FA02F02249884214D92249A4
S1131A008B4208D921498B4207D921498B4294BF83
S1131A100323002302E0012300E00223216C21F0D0
S1131A20600141EA43132364D4F8943043F0800303
S1131A30C4F89430D4F8943013F0800FFAD1236CA6
S1131A4023F0600343EA42122264D4F8943023F072
S1131A50040343EA8703C4F89430D4F8943023F0A1
S1131A6003033343C4F89430D4F8903023F0400394
S1131A70EDB243EA8513C4F8903002B0BDE8F081BA
S1131A80B093000040787D0181F0FA0203E1F5058E
S1131A9007C2EB0B0423038000234380704700BF7D
S1131AA0F0B4114B53F820300F88D3F8C420D3F886
S1131AB0C000D3F8BC60D3F8B850D3F8B440C3F82E
S1131AC0B07010443A1832442A44224412F4784F35
S1131AD014BF4FF0FF32002292B2C3F8AC208A78D0
S1131AE0C3F8A020F0BC7047B0930000064B53F835
S1131AF02020D2F8B030C3F309030B80D2F8A03011
S1131B00DBB24B80704700BFB0930000024B184417
S1131B1090F92C00704700BFB0930000074B53F8B6
S1131B202020012903D1136C43F480731364D2F889
S1131B30903013F4702FFAD1704700BFB0930000B7
S1131B40044B53F82020D2F8903043F07063C2F86D
S1131B5090307047B0930000034B53F82030D3F813
S1131B609000C0F303607047B0930000074B5B69BB
S1131B70DBB2042B06D0802B06D0012B0CBF012036
S1131B8004207047022070470320704700E007409C
S1131B90044BD3F8003113F0807F1ABF024B18684E
S1131BA00020704700400640A801002010B584B012
S1131BB00B46A1B900238DF804308DF80C300122B6
S1131BC08DF808208DF809208DF805208DF8063051
S1131BD002238DF8073004AB3A4A43F8102D3A4AF1
S1131BE0D2F8002112F0007F67D1374AD2F80011F1
S1131BF021F40001C2F800114FF08061C2F8001115
S1131C000021324A1160002859D05A7A120202F493
S1131C10E0611A7A02F007020A432B48C0F8042153
S1131C209979C90001F00801DA79120102F0300251
S1131C3011435A79920002F004020A43C0F80821C1
S1131C401A79012A0FD012B1022A18D023E01A7B84
S1131C50002A14BF4FF40002002242F001021A4984
S1131C60C1F8002117E01A7B002A14BF4FF40002C8
S1131C70002242F001121449C1F800210BE01A7B42
S1131C80002A14BF4FF403024FF4403242F0010221
S1131C900D49C1F800211A680C4B1A600C4C00E085
S1131CA0013CFFF775FF18B9002CF9D1032007E0B8
S1131CB0002C14BF0020032002E0022000E00020DA
S1131CC004B010BD00127A0000400640A8010020B4
S1131CD088E73000084BD3F8003213F0807F09D036
S1131CE0054BD3F8083203F00103002B034808BF67
S1131CF000207047002070470040064000127A0020
S1131D0010B582B00B4671B900238DF8043001225E
S1131D108DF805208DF806308DF801208DF802200D
S1131D2002AB03F8082D254AD2F8002212F0007FF6
S1131D303FD1224AD2F8001221F40001C2F8001265
S1131D400021C2F80012002835D09A78120202F459
S1131D50E0615A7802F007020A431849C1F80422E4
S1131D601A7802F00102C1F808225A7999791B798C
S1131D70002B14BF03230123002A14BF04220022D2
S1131D801A43002914BF4FF40003002313430B4AE2
S1131D90C2F80032642400E0013CFFF79BFF18B94D
S1131DA0002CF9D1032007E0002C14BF00200320ED
S1131DB002E0022000E0002002B010BD0040064016
S1131DC0054BD3F8003313F0807F1DBF024BD3F8CB
S1131DD0083302480020704700400640006CDC02D3
S1131DE010B582B00B4661B901238DF8053000228D
S1131DF08DF806208DF801308DF8023002AB03F81F
S1131E00082D224AD2F8002312F0007F38D11F4A4D
S1131E10D2F8001321F40001C2F800134FF08061DE
S1131E20C2F8001370B39A78120202F4E0615A788F
S1131E3002F007020A431549C1F804231A7802F094
S1131E400302C1F808239A795B79002B14BF01239C
S1131E500923002A14BF4FF4000200221343C1F8DF
S1131E600033142400E0013CFFF7AAFF18B9002C4A
S1131E70F9D1032007E0002C14BF0020032002E066
S1131E80022000E0002002B010BD00BF0040064068
S1131E9008B50F4BD3F8003613F0807F14D0FFF74A
S1131EA077FE034688B10A49D1F80826C2F3022214
S1131EB00132B0FBF2F3D1F80826C2F30442103227
S1131EC002FB03F35B0800E00023184608BD00BFD3
S1131ED00040064010B584B00C4681B900238DF84B
S1131EE004308DF80B3001228DF808208DF809207C
S1131EF08DF805308DF806308DF8073001AC354B80
S1131F00D3F8003613F0007F5FD1324BD3F80026AC
S1131F1022F40002C3F800264FF08062C3F80026C2
S1131F20002854D0FFF734FE63791B0203F4E06207
S1131F30237903F0070313432649C1F80436A37831
S1131F401B0403F4F81263781B0203F4E0631343E5
S1131F50C1F808362378012B11D013B1022B1AD003
S1131F600AE0E379002B14BF4FF40003002343F08D
S1131F700103184AC2F800364FF47A7419E0E37981
S1131F80002B14BF4FF40003002343F00113114A44
S1131F90C2F80036F0E7E379002B14BF4FF40303D3
S1131FA04FF4403343F001030A4AC2F80036E3E732
S1131FB0013CFFF76DFF18B9002CF9D1032007E0AD
S1131FC0002C14BF0020032002E0022000E00020C7
S1131FD004B010BD004006402DE9F04107460D460F
S1131FE08C7801344E7806FB04460B7803FB0448D6
S1131FF0CB78013B052B10D8DFE803F00306090F6B
S11320000F0CFFF7C5FD09E0FFF764FE06E0FFF7DC
S1132010D7FE03E0FFF73CFF00E000200009022F99
S11320203BD0032F6ED0012F40F0A480EA7802EB5E
S113203042015F4B53F821301B0903FB04F4A04217
S113204000F29B800B465A4901EB83035B681B0932
S113205003FB06F6B04200F2938002EB420301EB6D
S113206083039B681B0903FB08F3984200F28B80EF
S1132070120602F07062AB781B0403F470231A4357
S11320802B7803F00F031A436B781B01DBB2134365
S1132090484A53610020BDE8F081EA7802EB42012E
S11320A0434B03EB81035B6D1B0903FB04F4A04268
S11320B06CD80B463E4901EB83039B6D1B0903FB64
S11320C006F6B04265D802EB420301EB8303DB6DF5
S11320D01B0903FB08F398425ED8120602F07062F3
S11320E0AB781B0403F470231A432B7803F00F031B
S11320F01A436B781B01DBB213432E4A9361002011
S1132100BDE8F081EA7802EB4201294B03EB81033D
S1132110D3F8A8301B0903FB04F4A0423FD80B46B4
S1132120234901EB8303D3F8AC301B0903FB06F608
S1132130B04237D802EB420301EB8303D3F8B0304B
S11321401B0903FB08F398422FD8120602F07062B1
S1132150AB781B0403F470231A432B7803F00F03AA
S11321601A436B781B01DBB21343124AD36100207C
S1132170BDE8F0810020BDE8F0810120BDE8F081D8
S11321800120BDE8F0810120BDE8F0810120BDE817
S1132190F0810120BDE8F0810120BDE8F08101203B
S11321A0BDE8F0810120BDE8F0810120BDE8F081A7
S11321B0E09300000040064038B50546FFF7D6FC22
S11321C02946FFF709FF044678B9E8780A22084946
S11321D0013A0B69C3F30363984203D0002AF7D191
S11321E0032402E0002A08BF0324204638BD00BFB0
S11321F00040064010B504461B4B1B69C3F3036340
S1132200013B052B10D8DFE803F00306090F0F0C80
S1132210FFF7BEFC09E0FFF75DFD06E0FFF7D0FD28
S113222003E0FFF735FE00E000200F4B1B69C3F30A
S113223003430133B0FBF3F0012C04D094B1022C1E
S113224009D0002010BD084B1B69C3F303130133ED
S1132250B0FBF3F010BD044B1B6903F00F03013313
S1132260B0FBF3F010BD00BF0040064008B50F4BB3
S11322701B6AC3F30363062B15D8DFE803F00408D5
S11322800B0E141411000220FFF7B4FF08BDFFF772
S11322907FFC08BDFFF71EFD08BDFFF791FD08BDDB
S11322A0FFF7F6FD08BD002008BD00BF0040064052
S11322B008B511B1012927D04DE0043803284DD8C1
S11322C0DFE800F00A02121AFFF77AFD294BD3F86F
S11322D0043303F0070346E0FFF7FCFC254BD3F877
S11322E0043203F007033EE0FFF752FC214BD3F81E
S11322F0043103F0070336E0FFF7CAFD1D4BD3F8A2
S1132300043603F007032EE00438032829D8DFE855
S113231000F00A02121AFFF753FD164BD3F80433E8
S1132320C3F302231FE0FFF7D5FC124BD3F80432AA
S1132330C3F3022317E0FFF72BFC0E4BD3F8043151
S1132340C3F302230FE0FFF7A3FD0A4BD3F80436CF
S1132350C3F3022307E00023184604E000231846D1
S113236001E00023184613B1013BD84008BD00200A
S113237008BD00BF0040064008B5114B1B69C3F3FC
S11323800113032B1AD8DFE803F002071114062007
S11323900021FFF78DFF08BD094B1B69C3F3400300
S11323A0002B14BF4FF4FA40002008BD054B1868F9
S11323B008BD05200021FFF77BFF08BD002008BDF4
S11323C000800440AC01002038B51E4B03EB4000F4
S11323D0B0F8FC309B0003F1804303F5CA2318686E
S11323E0C0F3C0051C6804F00704A54225D81A6888
S11323F012F0804F23D01B68C3F30263013B052B0B
S113240014D8DFE803F003070B13130F0620FFF7BC
S11324104FFF0CE00420FFF74BFF08E00520FFF717
S113242047FF04E00720FFF743FF00E000200134EA
S1132430B0FBF4F005FB000038BD002038BD0020DF
S113244038BD00BFE0930000104B1B69C3F3810348
S1132450022B07D0032B0FD0002B0CBF4FF4FA3004
S113246000207047094B1B69C3F34003002B14BFC2
S11324704FF4FA4000207047044B1B69C3F3400338
S1132480002B14BF4FF4FA40002070470080044032
S113249008B5244B5B6813F4006F40D0214B5B6894
S11324A0C3F303130E2B09D8DFE803F00A080D0861
S11324B01208171C20252F0829082C00002026E0CC
S11324C0FFF7D4FE23E006200121FFF7F1FE1EE012
S11324D004200121FFF7ECFE19E005200121FFF79C
S11324E0E7FE14E00020FFF785FE10E0072001213D
S11324F0FFF7DEFE0BE00120FFF77CFE07E0FFF7AD
S1132500A3FF04E0FFF738FF01E04FF4FA30054B76
S11325105B68C3F302230133B0FBF3F008BD002072
S113252008BD00BF0080044030B583B00546FFF706
S1132530AFFC88B1062D51D006238DF80730022355
S11325408DF8063001238DF8053002A800F8043D0B
S1132550FFF732FE044600E00124FFF731FC88B1A6
S1132560032D40D074B103238DF8073000228DF879
S1132570062001228DF8052002A800F8043DFFF78B
S11325801BFE0446FFF704FB90B1012D01D12FE09F
S113259001246CB101238DF8073000228DF8062048
S11325A08DF8053002A800F8043DFFF705FE044647
S11325B0FFF790FB58B3022D29D044B302238DF8C2
S11325C0073000238DF806308DF8053002A801236A
S11325D000F8043DFFF7F0FD044618E0FFF7F0FBB8
S11325E00028C0D109E0FFF7D3FA0028D1D10AE0CE
S11325F0FFF770FB0028E0D109E0FFF7C9FA0028D3
S1132600C6D10124D4E7FFF765FB0028D5D12046C5
S113261003B030BD174B1B69C3F30363013B052BA8
S11326200FD8DFE803F00306090E0E0C0123C37074
S113263007E00223C37004E00323C37001E0062310
S1132640C3700C4B1A690C49C2F303120A4492F882
S11326509C2142701A69C2F303420A4492F89C21F5
S113266082701B6903F00F030B4493F89C310370D1
S1132670704700BF00400640E093000001383F2847
S11326802DD8DFE800F02A282C262C2C2C242C2CE6
S11326902C2C2C2C2C222C2C2C2C2C2C2C2C2C2C80
S11326A02C2C2C2C2C202C2C2C2C2C2C2C2C2C2C72
S11326B02C2C2C2C2C2C2C2C2C2C2C2C2C2C2C2C56
S11326C02C2C2C2C2C2E062070470520704704201F
S11326D07047032070470220704701207047002094
S11326E070470720704700BFF0B5A1B0044600282A
S11326F040F09D8001238DF80B3000228DF80C20D2
S11327008DF80D308DF80E208DF808308DF80930D5
S11327108DF80A308DF816308DF814308DF81520A8
S11327208DF80F208DF810308DF811308DF8383079
S11327300D928DF82530924906918DF81C208DF864
S113274024208DF81D308DF81E2002208DF81F00E6
S11327508DF820308DF821308DF830308DF8282018
S11327608DF82F208DF829200C218DF82A108DF852
S11327702B208DF82C308DF82D308DF83D30032131
S11327808DF83C108DF84B308DF841108DF84020B9
S11327908DF83F308DF83E308DF845008DF844308B
S11327A08DF843208DF8421006208DF849008DF8ED
S11327B048208DF847308DF8461072491E9120212B
S11327C01D918DF84C308DF84D208DF84E208DF8EC
S11327D04F208DF850308DF854308DF853308DF8EB
S11327E052208DF851208DF868308DF869308DF8BD
S11327F06A308DF86B308DF86C308DF86D308DF853
S113280073308DF858301792189219928DF86E30F3
S11328108DF86F308DF870208DF871208DF872204E
S11328208DF87C308DF87D308DF87E2002AC264604
S1132830002C00F0F580544B1B69C3F30363032B96
S11328401CD0FFF7BDFA38B901200021FFF7C8FA00
S11328500546002840F0018203238DF8073000224A
S11328608DF8062001228DF8052020A800F87C3D73
S1132870FFF7A2FC0546002840F0EF81E0783146DE
S1132880FFF73EFA0546002840F0C481607F04F15A
S11328901001FFF78BF90546002840F0BB8194F83E
S11328A0280004F12001FFF715FB0546FFF75EF948
S11328B0022806D0032807D0012808D104F13606DF
S11328C006E004F13A0603E004F13E0600E00026C7
S11328D0002D70D1F378032B58D194F82830002BB5
S11328E000F0A48106238DF8073002238DF806300A
S11328F001238DF8053020A800F87C3DFFF75CFC2F
S11329000546637F7BB1012820D101238DF8073070
S113291000228DF806208DF8053020A800F87C3DB3
S1132920FFF74AFC0546E37883B1012D0ED102235B
S11329308DF8073000238DF806308DF8053020A877
S1132940012300F87C3DFFF737FC0546002D32D10A
S1132950A07BE11DFFF744FA054660BBF3788DF8D0
S11329600730B3788DF8063073788DF805303378F6
S113297020A800F87C3DFFF71FFC05461BE000BFC4
S113298000127A001484FF1F004006408DF80730BF
S1132990B3788DF8063073788DF80530337820A835
S11329A000F87C3DFFF708FC054620B9A07BE11D3B
S11329B0FFF716FA0546002D40F04F8194F83030A9
S11329C013B1E26AA64B1A6094F8353053B1A549A5
S11329D00B6A23F0706294F834301B0603F07063C2
S11329E013430B6294F84330D3B1012004F1360150
S11329F0FFF7F2FA0546002840F02F81022004F187
S1132A003A01FFF7E9FA0546002840F02681032041
S1132A1004F13E01FFF7E0FA0546002840F01D816D
S1132A2014F16C0F3AD0236F002B37D0E36E002BD8
S1132A3034D000218C488D4D01EB8102236F9B5CC7
S1132A4000EB4303B3F8FC309B0003F1804303F530
S1132A50CA231E6826F080461E60236F9E189F5C62
S1132A60B3781B0603F0E062F378DB0003F008039D
S1132A701343327902F0070213437278002A14BF19
S1132A804FF080420022134300EB4707B7F8FC20C5
S1132A9045F822300131E36E9942CDD394F84430A5
S1132AA0C3B194F8460094F84720714B5B6823F453
S1132AB07F6194F84530002B14BF4FF40065002566
S1132AC00301DBB2120202F4E06213430B432B4313
S1132AD0674A536094F84830DBB194F84A1094F88C
S1132AE04920634B1B6923F03F0394F84C000343D4
S1132AF094F84B00002814BF02200020890001F044
S1132B000C010B43120102F0300213430343584AF1
S1132B10136194F86030002B00F09A80544A136CCF
S1132B2023F0010394F861100B431364136C23F036
S1132B30020394F86220002A14BF022200221343E5
S1132B404B4A1364136C23F0040394F86320002AA3
S1132B5014BF042200221343454A1364136C23F068
S1132B60080394F86420002A14BF082200221343A7
S1132B703F4A1364136C23F0100394F86520002A71
S1132B8014BF102200221343394A136460E094F8FE
S1132B906630EBB1364B9A6E002098665A6822F480
S1132BA0805194F86820120302F480520A435A6058
S1132BB0986694F867305BB194F86A3043F08052B9
S1132BC094F869305B0003F00E031343284A9366BC
S1132BD094F87430E3B127498B7803F07F0294F8BA
S1132BE0753083F0010342EAC313DBB28B7094F8AF
S1132BF0763013F0800F1CBF2033DBB21D490A79F5
S1132C0003F01F0302F0E00213430B71002524E0DC
S1132C10002522E0FEF7AAFF02283FF452AE032863
S1132C203FF452AE01287FF4C6AE47E6637F002B23
S1132C307FF46BAEE378002B7FF479AE012585E653
S1132C400D4B626D1A60A26D5A60E26D9A609EE748
S1132C5094F85030002BF3D199E7284621B0F0BD09
S1132C60AC01002000400640E09300000050064004
S1132C700080044000D00740B001002070B5044635
S1132C800D4611287FD8112876D8DFE800F0090F07
S1132C90151B20252A2F34383D444B525960676E4A
S1132CA00020FFF7A7FA0346002067E00120FFF7A2
S1132CB0A1FA0346002061E00220FFF79BFA0346D5
S1132CC000205BE0FFF7E4FB0346002056E0FFF73B
S1132CD001F80346002051E0FFF772F80346002094
S1132CE04CE0FEF755FF0346002047E0FFF7D0F81D
S1132CF00346002042E0A74B1B6800203EE0FFF79C
S1132D00B5FA0346002039E004200021FFF7D0FA89
S1132D100346002032E004200121FFF7C9FA0346EC
S1132D2000202BE005200021FFF7C2FA0346002013
S1132D3024E005200121FFF7BBFA034600201DE033
S1132D4006200021FFF7B4FA0346002016E006200F
S1132D500121FFF7ADFA034600200FE00720002110
S1132D60FFF7A6FA0346002008E007200121FFF739
S1132D709FFA0346002001E000230420002D00F008
S1132D8056812B6070BD232800F2D180A0F1150478
S1132D900E2C00F29680DFE804F008141F2A343960
S1132DA03E47535F677079828B007B4BDB68C3F3CC
S1132DB00163022B00F28880784A52F82330002005
S1132DC0B0E0754BDB68C3F38163022B7FD8734A91
S1132DD052F823300020A5E06F4BDB68C3F3017386
S1132DE0022B77D86D4A52F8233000209AE06A4BC0
S1132DF0DB689B0F022B70D8684A52F823300020FE
S1132E0090E0FFF745FB034600208BE0FFF7B4FAA0
S1132E100346002086E0624B9B78DB0960D1FFF714
S1132E2013FB034600207DE05D4B9B78DB095AD100
S1132E30594B1B6913F0010F58D10023184671E058
S1132E40574B9B78DB0955D1534B1B6913F0020F89
S1132E5053D10023184665E0514B9B78DB0950D1D0
S1132E604FF4FA3300205DE04B4B1B6C13F0100F52
S1132E704AD100234FF4807054E0474B1B6C13F08D
S1132E80080F44D100234FF480704BE0424B1B6C7D
S1132E9013F0040F3ED100234FF4807042E03E4B08
S1132EA01B6C13F0020F38D100234FF4807039E00B
S1132EB0394B1B6C13F0010F32D100234FF4807097
S1132EC030E0002304202DE0002318462AE00023EC
S1132ED0184627E00023184624E00023184621E082
S1132EE0002318461EE0002318461BE04FF47A73B3
S1132EF0002017E00023184614E04FF4FA430020A2
S1132F0010E0002318460DE0002318460AE00023D1
S1132F10184607E00023184604E00023184601E0A1
S1132F2000231846002D00F082802B6070BD4D28D0
S1132F3054D8242854D900F0F703332B52D039281D
S1132F4052D0402852D04D2852D0164B03EB4003A8
S1132F50B3F8FC20144B53F8223013F0804F49D0BF
S1132F604CE00120FFF746F9002855D04EE016F05A
S1132F70400F05D00020FFF73DF900284CD045E074
S1132F8016F0800F42D00220FFF734F9002843D016
S1132F903CE000BFAC01002000800440B0010020F0
S1132FA000D00740E09300000050064016F0080FE0
S1132FB036D020460021FFF707FA034616F0100F1B
S1132FC004D020460121FFF7FFF90346002B14BF6C
S1132FD000204FF4807055B32B6070BD042070BD89
S1132FE0042009E0042007E0042005E0042003E0B5
S1132FF0042001E04FF480700023ECE70C4B034401
S113300093F8AC6116F0200FB1D0AAE716F0180FB0
S1133010CCD100231846DEE700234FF48070DAE7B2
S113302016F0100FCDD100234FF48070D3E770BD9C
S1133030E093000008B5FFF757FB08BD08B5FFF79C
S11330401DFE08BD70B582B004460846F9B90123D7
S11330508DF80030FEF73EFE60B9FEF7B1FE58B9B8
S1133060FEF796FD50B9FEF713FF002814BF07239F
S11330704F2304E0042302E0052300E006238DF837
S113308001300123ADF80230ADF804306846484BF6
S1133090234493F8AC3113F0010F47D113F0180F08
S11330A00FD04278043A032A0DD8DFE802F0020474
S11330B00608022608E0032606E0012604E00626A8
S11330C002E0002600E0002613F0040F1ABF8188F6
S11330D001F1FF31002113F0020F1ABF428802F1FF
S11330E0FF320022324B03EB4403B3F8FC309B0065
S11330F003F1804303F5CA231D6825F080451D6054
S11331000378002B51D0360646F0804601F00701C3
S11331103143D20002F008020A43254B03EB440476
S1133120B4F8FC10234B43F821203EE003781F3C05
S1133130042C3AD8DFE804F02E22160A03001E49B4
S11331400A6C22F0010213430B642EE01A4A126C3B
S113315022F00202002B14BF022300231343164A59
S1133160136422E0144A126C22F00402002B14BFF0
S1133170042300231343104A136416E00E4A126C0E
S113318022F00802002B14BF0823002313430A4A29
S113319013640AE0084A126C22F01002002B14BFD8
S11331A0102300231343044A136402B070BD00BF0C
S11331B0E0930000005006400080044070B582B0E7
S11331C005460C46FEF7D2FC06465DB12B68022B81
S11331D006D0042B08D0012B0CBF0125042504E0E4
S11331E0022502E0054600E00325D4BBFEF7E8FD16
S11331F058B103238DF8073000228DF806200122F0
S11332008DF805208DF8043051E0FEF741FE58B1E9
S113321006238DF8073002238DF8063001238DF83C
S113322005308DF8043042E0FEF7B2FC50B10123C2
S11332308DF8073000228DF806208DF805308DF8C2
S1133240043034E0FEF746FD88B302238DF80730DE
S113325000238DF806308DF8053001238DF80430F5
S113326025E02378043B032B09D8DFE803F00A02A6
S11332700406032306E0012304E0062302E0FF23FF
S113328000E002238DF807300F4A6388134493F853
S1133290FC318DF80630A388134493F8FC318DF883
S11332A00530E388134493F8FC318DF80430B542BB
S11332B003D101A8FEF780FF03E0284601A9FEF729
S11332C08BFE02B070BD00BFE0930000154B1B697C
S11332D0C3F30363013B052B10D8DFE803F00306B7
S11332E0090F0F0C062303700AE00423037007E0A0
S11332F00523037004E00723037001E00423037033
S1133300084A1369C3F30343013343801369C3F3C6
S1133310031301338380136903F00F030133C38064
S1133320704700BF004006402DE9F04186B00546D5
S11333300C468889FFF7A2F98046E089FFF79EF9D9
S113334007460CB1267800E00126281F172800F252
S11333503381DFE810F0180053008B00E1003101E5
S113336031013101310131013101310131013101C9
S113337031013101310131013101310131013101B9
S1133380310131011A018F4B1B69C3F30363022B13
S11333900CD18EB301A8FFF73DF90220FFF7C4F862
S11333A00346002840F00981012500E000252CB9DE
S11333B001200021FEF7A4FC034612E001238DF84E
S11333C00D308DF80C3000228DF80E208DF8098018
S11333D08DF80A7006A901F8103D3046FEF790FCFE
S11333E00346002B40F0E980002D00F0E68001A8A0
S11333F0FEF7E2FE0346E0E00123DEE0714B1B69C9
S1133400C3F30363032B0CD176B301A8FFF702F9CE
S11334100320FFF789F80346002840F0CE800125F9
S113342000E000252CB930460021FEF7D9FC034604
S11334300FE000238DF80E308DF809808DF80A70A6
S11334408DF808308DF80D30304602A9FEF7C8FC1F
S11334500346002B40F0B180002D00F0AE8001A89F
S1133460FEF7AAFE0346A8E00123A6E0554B1B691C
S1133470C3F30363012B0DD1002E4BD001A8FFF73A
S1133480C9F80120FFF750F80346002840F0958062
S1133490012500E000252CB930460021FEF786FB0B
S11334A003462EE06368029300228DF80C208DF809
S11334B014208DF810808DF811706278012A14BFE1
S11334C0002201228DF80D2000228DF80E20A3F594
S11334D07412A2F510623C498A4203D802238DF883
S11334E00F3009E0A3F5F403A3F59053374A934250
S11334F09CBF03238DF80F30304602A9FEF756FB1C
S11335000346002B59D1002D57D001A8FEF754FED5
S1133510034652E0012350E02A4B1B69C3F30363C3
S1133520062B0BD17EB301A8FFF774F80620FEF733
S1133530FBFF0346002840D1012500E000252CB9FB
S113354030460021FEF7C6FC034615E000238DF843
S113355008308DF80F308DF80C808DF80D70A37A3B
S1133560013B8DF80930237A103B8DF80A30304640
S113357002A9FEF7AFFC0346FBB9F5B101A8FEF7BB
S11335801BFE034619E0012317E076B1104A1369C4
S113359023F03F0343F00303136102F5543293789D
S11335A003F07F039370002307E00A4A937843F003
S11335B080039370002300E00023184606B0BDE8A2
S11335C0F08100BF0040064000093D000048E801CA
S11335D00080044000D0074010B4054C20602171E5
S11335E0A2602373637300205DF8044B704700BF2F
S11335F09C000020F0B583B007460E468DF8040009
S11336008DF8051002F08EFB314A137B53730122AF
S11336108DF80620002B46D000242D4DAB6853F8BE
S1133620243053B11A79022A07D01A6801A899687C
S1133630904710B16C73002E41D00134E4B22B7B5F
S1133640A342EBD830E002238DF80630204B1B7BDD
S1133650002B37D000241E4FBB6853F824304BB1E5
S11336601A79012A06D01A6801A89968904708B106
S11336707C73AEB10134E4B23B7BA342ECD821E0CD
S113368000238DF80630124EB36853F824301BB172
S11336901A6801A899689047A4B1013CE4B2F3E721
S11336A04FF482750EE00024094D2B6853F827006F
S11336B0FFF71AF86F7105460028C4D0E0E740F21E
S11336C00315DDE702F020FB284603B0F0BD00BF80
S11336D09C000020014B5879704700BF9C000020DB
S11336E0054B5A7B1B79934283BF034B9B6853F86A
S11336F022000020704700BF9C00002029B141181F
S1133700002300F8013B8842FBD170472DE9F843C0
S113371081460D464F7807F00F048E78DFF8A080BD
S1133720D8F8003043F827001021FFF7E7FF89F8A5
S11337300070214F38462146012200F023FD1F4B23
S11337401A5D02F07F021A551A5D02F0C00206F0FB
S11337503F0616431E551A5D42F080021A5538463C
S1133760214600F01BFDD8F800306A7853F8222077
S1133770002111733A6812F0040F11D12A78FF2A3C
S11337800ED084F0030404F1804404F5004494F85A
S1133790001101F0F00102F00F020A4384F8002145
S11337A06C68A9686A7853F82200446053F82230A0
S11337B099600020BDE8F8830080004000100240BA
S11337C0AC0000202DE9F8430C4616469946089FA4
S11337D0264B18604021FFF791FF254D284600F045
S11337E0FBFC2B6823F0040223789B0003F0040302
S11337F013432B602B6823F010036278002A14BF54
S11338001022002213432B60102002F065FA194D98
S11338106C1E0F3514F9010F02F05EFAAC42F9D1B7
S11338201AE0B9F1000F13D0A7B1A6F10408A9F169
S1133830040600252C4658F8040F56F8041FFFF719
S113384065FF002818BF05460134BC42F3D109E0E6
S1133850002507E0002505E0074800F0BFFD002E25
S1133860DFD100252846BDE8F88300BFAC00002066
S113387000800040F09500000010024010B4064B98
S11338801B6853F82040616053F820309A60002090
S11338905DF8044B704700BFAC00002070B50446CF
S11338A0094D2B6853F82060084804F00F010022EA
S11338B000F06EFC30461021FFF720FF2B6800203B
S11338C043F8240070BD00BFAC000020008000401D
S11338D038B5102002F00CFA0D4B1B68A3B100247C
S11338E00B4D2B6853F8243013B11878FFF7D6FF2B
S11338F00134102CF5D1074D6C1E0F3514F9010F4E
S113390002F0F6F9AC42F9D10020014B186038BD41
S1133910AC000020F095000008B5084B1B6853F874
S1133920203000F00F00064A1077D07723B15A6890
S113393012B1197B9868904708BD00BFAC00002005
S11339400080004038B5054600F00F040D482146BC
S1133950002200F01DFC0C4B1B6853F8253053B1BA
S1133960084A1477D477947701221A735A6812B1EB
S1133970197B98689047034A136823F02003136067
S113398038BD00BF00800040AC0000202DE9F04F9E
S113399087B09DF84080119E012505FA08F5EFB225
S11339A0B6FBF7F407FB1464003418BF0124002CA1
S11339B06DD1059304920391814600F00F07DFF85F
S11339C0E0A05046394600F0E9FB7B0103F1804258
S11339D002F5004B02F5104204981060534441F282
S11339E0100205989850CDF80080CDF80480504618
S11339F039460022134600F001FC039B032B2CD80C
S1133A00DFE803F0020D1923002241F204032BF82E
S1133A1003206DB2ADB27A011F4B9D521DE06DB211
S1133A20ADB241F204032BF803507A011B4B13444B
S1133A3000229A8011E06DB2ADB241F204032BF87A
S1133A4003507A01144B9D5207E0002141F2040314
S1133A502BF803107A01104B9952114D2846394620
S1133A60324600F0E3FB28463946012200F06CFCA4
S1133A7005EB471707F58057BB8B9BB243F0020356
S1133A80BB83084B1B6853F8293000221A73204665
S1133A9007B0BDE8F08F00BF1490004010900040C4
S1133AA000800040AC00002070B582B004469DF850
S1133AB018500095079D0195FFF768FF0646D0B999
S1133AC004F00F040D4D28462146089A00F03CFCF2
S1133AD005EB441000F58050838B23F008031B048E
S1133AE01B0C9DF82420002A14BF08220022134333
S1133AF06401034A1353304602B070BD0080004095
S1133B001C90004008B500F00F010348012200F0AA
S1133B103FFB002008BD00BF0080004008B500F056
S1133B200F010348002200F033FB002008BD00BF52
S1133B3000800040044A135C03F0C00301F03F011D
S1133B4019431154002070470010024008B500F0DA
S1133B500F01024800F022FB08BD00BF00800040B6
S1133B6000F00F0080304001014B1950704700BF36
S1133B700080004000F00F0089B2400100F1804055
S1133B8000F510408180704700F00F00400100F103
S1133B90804000F5004041F20602835A9BB20902BC
S1133BA001F4E06123F4E0630B438352704700BFE8
S1133BB000F00F004001014B195070470C90004079
S1133BC000F00F00400100F1804000F5004041F298
S1133BD01803C150704700BF00F00F00400100F10E
S1133BE0804000F5004041F21003C150704700BF0F
S1133BF000F00F0089B24001014B1952704700BF19
S1133C001490004000F00F00400100F1804000F5E6
S1133C10004041F20602835A9BB201F0070123F0EF
S1133C2007030B438352704708B50A4600F00F019F
S1133C30014800F0FBFA08BD0080004008B50A46C0
S1133C4000F00F01014800F07FFB08BD0080004038
S1133C5008B500F00F01024800F0A6FB08BD00BF44
S1133C600080004008B50A4600F00F01014800F04A
S1133C702DFB08BD0080004000F00F004201074BFF
S1133C809B5A23F008031B041B0C002914BF0822B1
S1133C90002213434001014A135270471C90004014
S1133CA008B500F00F03012908D011B1022914D07E
S1133CB008BD1148194600F065FA08BD58010F49BE
S1133CC0095A21F004010904090C002A14BF042232
S1133CD000221143094A115208BD58010749095AE3
S1133CE021F002010904090C002A14BF0222002257
S1133CF01143024A115208BD008000401C9000404C
S1133D0008B518B1034800F033FA08BD014800F0C3
S1133D1025FA08BD0080004000F00F00014B5877E1
S1133D20704700BF00800040002841D038B50446E9
S1133D3000293CD00D4608462021FFF7DFFC627ABB
S1133D4002F00702237E42EAC322237A1B0203F411
S1133D50E0631A43637EDB00DBB21343EB8023682A
S1133D602B606389AB80E369AB602369EB606368B4
S1133D702B61A389AB82E36A1B68EB8294F8203041
S1133D8013B1636AAB6101E06369AB6194F82830F5
S1133D90002B14BF0223002394F82020002A14BF10
S1133DA0102200221343AB83E36A1B68EB8338BD04
S1133DB0704700BF2DE9F04383B00C4600F00F05B7
S1133DC06F4F3846294600F0E9F922686E0106F182
S1133DD0804303F5004803F510431A6062683E44CB
S1133DE041F2100306EB0309F250227E637E217A2E
S1133DF00091617A01913846294600F0FFF9628901
S1133E0041F2040328F80320A389A9F804302369A4
S1133E1006F58056F36094F8203073B1384607EB0A
S1133E20451303F580539A8B92B242F010029A83A1
S1133E302946626A00F04AFA0FE06A0102F1804200
S1133E4002F5004241F218015018838823F0100350
S1133E501B041B0C8380636953506A01494B9B5AB2
S1133E6023F002031B041B0C94F82820002A14BF1F
S1133E700222002213436901424A5352E36A002B8F
S1133E8075D019793E4B1B6813F0800F17D06B0166
S1133E9003F1804303F5004341F208029A5822F0EB
S1133EA00043002914BF4FF0004200221A436B0163
S1133EB003F1804303F5004341F208015A50E36AD9
S1133EC059792F4B1B6813F0800F17D06B0103F146
S1133ED0804303F5004341F208029A5822F08043DC
S1133EE0002914BF4FF0804200221A436B0103F1F2
S1133EF0804303F5004341F208015A50204EE36A1F
S1133F00304629469A6800F0BFF930462946E269EE
S1133F1000F08CF9E36A304629465A7B1B7B00F09B
S1133F20DBF9E26A917B06EB451000F58050838B48
S1133F309BB2D27B120202F4706223F470631343C7
S1133F408383838B23F020031B041B0C002914BFE1
S1133F50202200221343304606EB451202F580521C
S1133F609383E36A29461A6800F0EEF904E00448F2
S1133F702946E26900F05AF903B0BDE8F08300BFB6
S1133F80008000401C90004010B50446064A1368A7
S1133F9043F080031360FFF70DFF044B1B6853F8D5
S1133FA024300020187310BD00800040AC000020B5
S1133FB02DE9F04F97B0059092461F46209D219C15
S1133FC09DF8883001931F3121F01F065C4B1B685C
S1133FD053F820304FF0000883F80C804FF00109AB
S1133FE009FA0AF20292BDF80820B7FBF2F302FBC9
S1133FF01373B3EB080118BF0121039106A8302104
S1134000FFF77CFB0DF1480B58461021FFF776FBB8
S1134010CDF82880CDF82C808DF830808DF8318053
S11340208DF820A08DF821A00D978DF840908DF883
S11340303890CDF844B08DF84C808DF84D808DF8D3
S113404054808DF856800198002875D00399002972
S113405072D12B680693236807936B686268934256
S113406059D1297A227A914258D1A6F12008002602
S1134070B246BDF80820049200F1FF3B5FFA8BFBC7
S113408013E0D9F80C3006932146E3680793D9F876
S113409010302269934244D10C350C3408F12008C5
S11340A099F814000A7D90423ED1B3FBF7F3119ABC
S11340B01360A9462B7A032B1BD8DFE803F002090F
S11340C01016ADF822A0BDF80830ADF8243010E089
S11340D0BDF80830ADF82230ADF824A009E0049B07
S11340E0ADF82230ADF8243003E0ADF822A0ADF8ED
S11340F024A0B3450EBFCDF83CA008F120030F93D4
S113410026B9059806A9FFF755FE10E006A8414612
S1134110FFF70AFE0BE0012303930DE00123039351
S11341200AE00123039307E00123039304E001362B
S1134130F6B2019B9E42A4D1039817B0BDE8F08F5C
S1134140AC000020024B1B6853F82030187B7047EA
S1134150AC0000200048704700800040036843F42E
S113416000330360036813F4003FFBD1704700BFC2
S1134170036843F480330360036813F4803FFBD186
S1134180704700BF0AB1417670470176704700BF9F
S11341900AB1C17670478176704700BF00EB4111C8
S11341A041F20802881800238B5001F580521360F5
S11341B041F204028B5241F206028B52436041F2F7
S11341C010000A180B509380D38041F218000A188B
S11341D00B509380D380704738B50546036823F4A9
S11341E0403323F0C603036000242846E1B2FFF7FE
S11341F0D5FF0134102CF8D138BD00BF10B4DB005A
S1134200DCB29DF8083003F00703234343EAC222DB
S11342109DF80440240204F4E064224392B2803105
S113422000EB4110C2805DF8044B7047036813F043
S1134230800F13D010B400EB411341F208041B5952
S1134240002B11DB00EB41131B5913F0804F0BD1F2
S113425022F0404200EB4110025112E000EB411009
S113426041F20803C250704700EB411041F20801CB
S1134270435823F47F7323F00303C2F309021A4360
S113428042505DF8044B704730B4046814F0800F5A
S113429016D000EB411341F208041D591B5913F0C9
S11342A0804F01D1002D0BDA00EB411041F20804DC
S11342B00159044B0B40044901EA82221343035180
S11342C030BC7047FF0300C000FCFF3F00EB41110E
S11342D041F21803CA50704710B400EB411404F5BE
S11342E080541834E488C4F30E045BB900EB411025
S11342F000F58053DC8300F58050C38AC3F30E03BA
S1134300C3821EE044F4004400EB411101F58050E7
S1134310C48301F58051CB8A6FEA43436FEA534368
S11343209BB2CB82C38B9BB2520202F4F05223F4B1
S1134330F0531343C383CB8A9BB223F4F0531A4341
S1134340CA825DF8044B704700EB411303F58053B8
S11343501833DB881BB2002B12DA00EB411000F596
S11343608051CB8BC2F3080203F47E431343CB8307
S113437000F58050C38A03F47E431A43C282704717
S113438000EB411101F58050C38BC2F30E0203F41C
S113439000431343C38301F58051CB8A03F40043E4
S11343A01A43CA82704700BF00EB411303F58053E0
S11343B01833DB881BB2002B08DA00EB411000F540
S11343C080501030C088C0F30800704700EB4111E2
S11343D001F58051C88AC0F30E00704700231A46C5
S11343E0C2540133102BFBD1704700BF08B5002025
S11343F0FFF792FA08BD00BF08B50120FFF78CFA59
S113440008BD00BF08B50220FFF786FA08BD00BF4B
S113441008B50320FFF780FA08BD00BF08B50420E3
S1134420FFF77AFA08BD00BF08B50520FFF774FA54
S113443008BD00BF08B50620FFF76EFA08BD00BF2F
S113444008B50720FFF768FA08BD00BF08B50820C3
S1134450FFF762FA08BD00BF08B50920FFF75CFA50
S113446008BD00BF08B50A20FFF756FA08BD00BF13
S113447008B50B20FFF750FA08BD00BF08B50C20A3
S1134480FFF74AFA08BD00BF08B50D20FFF744FA4C
S113449008BD00BF08B50E20FFF73EFA08BD00BFF7
S11344A008B50F20FFF738FA08BD00BF38B5002063
S11344B0FFF750FEC56A002415F0010F02D0204614
S11344C0FFF740FA6D080134E4B2102CF4D138BD82
S11344D010B50446044B53F8200000F099FB00206B
S11344E0024B43F8240010BD00960000B0000020E9
S11344F0064B53F820000166836DD201D2B223F03B
S11345008003134383650020704700BF00960000BA
S1134510084B53F82000C36C1B0C1B041943C164E3
S1134520836DD201D2B223F080031343836500204C
S1134530704700BF00960000064B53F82000C0F8F7
S11345409C10836DD201D2B223F0800313438365A0
S11345500020704700960000094B53F82000D0F863
S1134560943023F47F4343EA0121C0F89410836D0F
S1134570D201D2B223F08003134383650020704735
S113458000960000094B53F82000D0F8943023F033
S1134590FF031943C0F89410836DD201D2B223F003
S11345A08003134383650020704700BF009600001A
S11345B0064B53F8203041EA0222C3F894209A6D46
S11345C042F080029A650020704700BF0096000008
S11345D0064B53F82000C0F89010836DD201D2B27C
S11345E023F0800313438365002070470096000086
S11345F0084B53F8200083681B0C1B04194381608B
S1134600836DD201D2B223F080031343836500206B
S1134610704700BF009600000B4B53F8203003EBAB
S1134620C101CB6802F0010023F0040343EA8003D4
S1134630CB60CB68C2F3400223F0080343EAC20212
S1134640CA600020704700BF0096000010B46E4B93
S113465053F820304A78002A40F0CE808A78002A25
S113466040F0CA80C87802460C781CB1002840F09B
S1134670B38004E012F0010F00F0B08023E0D3F81F
S11346808C2042F48062C3F88C20D3F88C2042F44E
S11346900062C3F88C20D3F88C2042F48052C3F813
S11346A08C20D3F88C2042F40072C3F88C20D3F809
S11346B08C20C87A000200F4807022F480720243D5
S11346C0C3F88C208EE0D3F88C2042F48022C3F807
S11346D08C20D3F88C2042F40022C3F88C20D3F829
S11346E08C2042F48012C3F88C20D3F88C2042F43E
S11346F00032C3F88C20D3F88C20C87A002814BF69
S11347004FF48030002022F480320243C3F88C201E
S113471068E09A6D42F010029A6503E09A6D22F007
S113472010029A658A7822B19A6D42F020029A6545
S113473003E09A6D22F020029A65CA7822B19A6D3C
S113474042F040029A6503E09A6D22F040029A65B5
S11347509A6D0879400000F0020022F00202024340
S11347609A659A6D487922F0010202439A659A6D1E
S1134770087A002814BF0820002022F0080202430F
S11347809A65D3F88C208879000100F0100022F09B
S113479010020243C3F88C20D3F88C20C87940015E
S11347A000F0200022F020020243C3F88C20D3F84A
S11347B08C20487A800000F0040022F004020243B6
S11347C0C3F88C20D3F88C20897A22F001020A43A2
S11347D0C3F88C20002014E0012012E0012010E036
S11347E001200EE0D3F88C2042F08002C3F88C2024
S11347F04A78002A8DD191E70A78002AF0D1012263
S113480038E75DF8044B704700960000F8B507469A
S11348100D46224B53F82060CCB211F4007F09D02E
S1134820336843F4807333601C4B034493F91000E2
S113483001F052FA15F4807F09D0736D43F08003C0
S11348407365164B3B4493F9140001F045FA15F4D3
S1134850806F09D0336843F0400333600F4B3B440F
S113486093F9180001F038FAACB100250B4B03EBB7
S1134870C70714F0010F0BD0EBB206EBC301CA68F3
S113488042F04002CA603B4493F91C0001F024FA50
S113489001356408EDD10020F8BD00BF009600008A
S11348A0F8B507460D46214B53F82060CCB211F4FD
S11348B0007F09D0336823F4807333601B4B0344B7
S11348C093F9100001F014FA15F4807F09D0736D88
S11348D023F080037365154B3B4493F9140001F0F6
S11348E007FA15F4806F09D0336823F0400333606E
S11348F00E4B3B4493F9180001F0FAF9ACB10025D2
S11349000A4B03EBC70714F0010F0BD0EBB206EB15
S1134910C301CA6822F04002CA603B4493F91C00F8
S113492001F0E6F901356408EDD1F8BD0096000008
S113493010B4144B53F820100868C0F30020400250
S11349404B6D13F0800F18BF40F480700B6813F0A8
S1134950400F11D040F480600EE0013BDBB25A1CE2
S113496001EBC202526812F0400F1CBF04FA03F2BA
S11349701043002BF1D102E008230124EDE75DF898
S1134980044B70470096000010B4174B53F82010E6
S11349900868C0F3402040024B6F13F0800F18BF2B
S11349A040F480700B6813F0800F18BF40F48060EF
S11349B0CB6E13F0800F10D040F400600DE05A1C51
S11349C001EBC202526812F0800F1CBF04FA03F21A
S11349D010430133082BF2D102E000230124EEE757
S11349E05DF8044B704700BF0096000030B4224BC2
S11349F053F82000CAB211F4007F04D0036823F4F2
S1134A0000730360036811F4807F10D0436F23F0B8
S1134A1081034367436F23F082034367436F23F0AB
S1134A2084034367436F23F088034367436F11F4A0
S1134A30806F04D0036823F080030360036811F4DB
S1134A40006F13D0C36E23F08003C3660EE012F030
S1134A50010F06D0016D05FA03F421EA0401016592
S1134A60016D52080133082BF1D102E00023012526
S1134A70EDE730BC704700BF0096000070B582B00F
S1134A8005461D4B53F82030002201921B6803F0A9
S1134A90070301249C40194B53F820301B78022B48
S1134AA01AD0032B02D0012B1FD11AE0124B03EBB7
S1134AB0400393F83D60304601A9FEF7DFF8019BFF
S1134AC02BB90D4B03EB450595F83C0000E030464F
S1134AD001A9FEF7D3F808E01A2001A9FEF7CEF8E1
S1134AE003E0002001A9FEF7C9F8E4B20198B0FB85
S1134AF0F4F002B070BD00BF00960000B0000020CA
S1134B00F8B5364B53F82050354B53F82030002B72
S1134B1060D18B7B1370002656705680304B43F85F
S1134B20202002F1060C02F1140E02F1340702F106
S1134B30570433462CF8023F4EF8043F47F8043F2D
S1134B4004F8013F0136082EF4D117460E460446F8
S1134B50284600F05DF82846717B00F04DF82046A9
S1134B60FFF78CFF7860337B023BDBB2022B05D866
S1134B7020463146FFF76AFD074600E00027EB6E4A
S1134B80727C920102F0400223F040031343EB666F
S1134B90D5F88430F27B9201D2B223F0C0031343E0
S1134BA0C5F88430337C53B12B6843F480732B6095
S1134BB00A48044494F9100001F08EF80BE02B68C5
S1134BC023F480732B600548044494F9100001F029
S1134BD08FF800E001273846F8BD00BF00960000BA
S1134BE0B0000020034B53F820305868B0FBF1F0BC
S1134BF080B27047B0000020436D43F00103436569
S1134C00036801F0070123F007030B4303607047B7
S1134C1010B4436F002343670422426502680360B3
S1134C2043608360C364026D03658365C365036683
S1134C3043668366C26EC36603678367C367C0F84F
S1134C408030C0F88430C0F88830C0F88C30C0F8A8
S1134C509030C0F89430C0F89830C0F89C301946B1
S1134C6000EBC302D468D16011610133082BF7D182
S1134C705DF8044B704700BF012902D810238B4014
S1134C8007E0052999BF0239012306394FF48073DF
S1134C908B401AB1C26E1343C3667047C26E22EAD8
S1134CA00303C366704700BF032923D8DFE801F07C
S1134CB0020A121B836F02F00F0223F00F031A4340
S1134CC082677047836F1201D2B223F0F0031A4354
S1134CD082677047836F120202F4706223F4706378
S1134CE01A4382677047836F120392B223F47043AE
S1134CF01A438267704700BFF8B52A4B53F8202047
S1134D005378012B4CD1284B53F820004B00DBB2D5
S1134D10456EC900042404FA01F1294221D000EBB4
S1134D20C3063469A5B2591CC9B200EBC1010C69B0
S1134D30A4B2A54206D980681F1D0444641B22F84E
S1134D40174003E0181D641B22F81040F06820F09F
S1134D508000F060F068C86820F08000C860C9680E
S1134D6013E0591C00EBC101496811F0800F04BF26
S1134D700133DBB200EBC3000469191D22F81140B2
S1134D80C16821F08001C160C16802EB83018C6BB2
S1134D9034B1134493F8583013B100208969A04703
S1134DA0F8BD00BFB0000020009600002DE9F04FD0
S1134DB083B0AE4B53F82080AD4B53F820A0BAF12A
S1134DC0000F00F0E0809AF80130002B40F0DD8005
S1134DD0D8F8003023F01803C8F80030D8F84C3065
S1134DE01B0C1B04C8F84C30D8F808204C88130C52
S1134DF01B042343C8F80830D8F8003023F02003FC
S1134E00C8F80030D8F8643023F08003C8F8643060
S1134E10D8F8643023F00103C8F864300B78002B11
S1134E2000F011810F46019000264FF0010B35016F
S1134E307B685A195C5D4FEA540993680AEB840253
S1134E4093617B682B44DB6893630AEB040383F868
S1134E5058B0032C0ED87B682B449A792AB140466B
S1134E6021461A79FFF720FF04E04046214600223C
S1134E70FFF71AFF7B682B445B78002B33D1D8F8FB
S1134E8064204FEAC909042303FA09F322EA03035D
S1134E90C8F8643008EBC403DA6822F01002DA6060
S1134EA0DA6822F02002DA607A681544A878D968B2
S1134EB000F0010221F0040141EA8201D960DA68BC
S1134EC0C0F3400022F0080242EAC002DA60DA6865
S1134ED042F04002DA60019B04EBC304654B1857AF
S1134EE000F0FAFE48E0012B46D1D8F864204FEADE
S1134EF0C909042303FA09F31343C8F86430D8F842
S1134F006420082303FA09F31343C8F864307B6868
S1134F102B44DB7953B108EBC403DA6842F0100286
S1134F20DA60DA6842F02002DA6009E008EBC403D0
S1134F30DA6822F01002DA60DA6842F02002DA60FD
S1134F407B681D44EB78032B21D0012B36D0042B36
S1134F504BD0022B60D0012085E0631CDBB208EB50
S1134F60C303DA6842F04002DA60019B04EBC30435
S1134F70404B185700F0B0FE0136F6B23B78B3420E
S1134F803FF655AF5FE001206DE001206BE008EBD8
S1134F90C403DA6842F00402DA60DA6822F0080234
S1134FA0DA60631CDBB208EBC303DA6822F00402A4
S1134FB0DA60DA6842F00802DA60CEE708EBC4038C
S1134FC0DA6842F00402DA60DA6822F00802DA6091
S1134FD0631CDBB208EBC303DA6842F00402DA6054
S1134FE0DA6822F00802DA60B7E708EBC403DA688B
S1134FF022F00402DA60DA6842F00802DA60631C24
S1135000DBB208EBC303DA6842F00402DA60DA6860
S113501022F00802DA60A0E708EBC403DA6822F0A1
S11350200402DA60DA6842F00802DA60631CDBB278
S113503008EBC303DA6822F00402DA60DA6842F0AB
S11350400802DA6089E701238AF80130D8F80030D1
S11350509AF80020D20002F0180223F01803134338
S1135060C8F80030002003B0BDE8F08F00960000BF
S1135070B00000201C9600002DE9F84F304B53F887
S11350802050304B53F820B02B6823F018032B60CA
S1135090EB6C1B0C1B04EB64AB686FEA13436FEA05
S11350A00343AB602B6823F020032B600B78002BA9
S11350B03AD0884600264FF0010A4FF00409D8F888
S11350C004203301D45C6708032C04D82846214605
S11350D00022FFF7E9FD6B6EFF000AFA07F223EAEC
S11350E002036B666B6E09FA07F223EA02036B662E
S11350F005EBC404E36823F00403E360E36823F0EE
S11351000803E360E36823F04003E3600136F6B28A
S113511098F80030B342D2D806E043F8042F41F89F
S1135120042F9842F9D106E00BF114030BF134007B
S113513001460022F1E700208BF80100BDE8F88F5A
S113514000960000B0000020044B53F820301BB13F
S1135150043133F81100704700207047B00000207C
S113516030B4164B53F8204004EBC100C368C3F3BA
S11351700012C368C3F3401342EA4303022B1AD15B
S1135180656E4B08DB0004229A402A4213D0013199
S1135190C9B204EBC101CA6822F08002CA60CA68BD
S11351A0C26822F08002C260C268626E082101FAFD
S11351B003F313436366002030BC7047009600007D
S11351C070B44E4C54F8200052B900EBC101CB68C6
S11351D023F00403CB60CB6823F00803CB608AE0A0
S11351E014464A08651EEDB2022D25D8456ED2003C
S11351F00423934025EA0303436600EBC100C3681C
S113520023F01003C360C36823F02003C360C368A2
S113521004F0010223F0040343EA8203C360C36879
S1135220C4F3400423F0080343EAC404C460C3681D
S113523043F04003C3605EE0466ED200042595400F
S113524035434566456E082606FA02F22A4342664D
S113525053B100EBC103DA6842F01002DA60DA6895
S113526042F02002DA6009E000EBC103DA6822F0C0
S11352701002DA60DA6842F02002DA60062C06D006
S1135280042C07D0052C08D102252E4607E0022560
S1135290012604E001252E4601E00125022600EB4B
S11352A0C103DA6806F0010422F0040242EA84022F
S11352B0DA60DC68760824F0080444EAC604DC609A
S11352C00131C9B200EBC100C16805F0010221F04F
S11352D0040141EA8201C160C2686D0822F008023B
S11352E042EAC502C260DA6822F04002DA60C368AA
S11352F043F04003C360002070BC70470096000078
S113530008B500200146FFF7F7FC08BD08B50020EA
S11353100121FFF7F1FC08BD08B500200221FFF7C9
S1135320EBFC08BD08B500200321FFF7E5FC08BD30
S113533008B501200021FFF7DFFC08BD08B50120F6
S11353400146FFF7D9FC08BD08B501200221FFF78B
S1135350D3FC08BD08B501200321FFF7CDFC08BD2F
S113536008B502200021FFF7C7FC08BD08B50220DC
S11353700121FFF7C1FC08BD08B502200146FFF773
S1135380BBFC08BD08B502200321FFF7B5FC08BD2E
S113539008B503200021FFF7AFFC08BD08B50320C2
S11353A00121FFF7A9FC08BD08B503200221FFF77E
S11353B0A3FC08BD08B503200146FFF79DFC08BD0A
S11353C02DE9F0433F4B53F820303F4A52F82080F8
S11353D01A6822F018021A6000218C4601244FF04A
S11353E0200E80271026402503EBC102C2F810C00E
S11353F0D06820F00400D060D06820F00800D060AD
S1135400D06820F01000D060D06820F02000D06078
S11354101A6822F020021A601A6F04FA01F002439B
S11354201A671A6801F1100004FA00F022EA000277
S11354301A60586EC1F34602D2000EFA02F920EA4D
S113544009005866586E07FA02F920EA09005866FE
S1135450586E04FA02F920EA09005866586E06FAF2
S113546002F920EA09005866586E05FA02F220EAA9
S113547002025A6601310829B6D19A6E22F47022CA
S11354809A669A6E22F0C00242F040029A669A6EC0
S113549022F03F029A660020D8675A6D22F08002FB
S11354A05A655A6D22F060025A659A68120C120409
S11354B09A605A68120C12045A6088F80100BDE818
S11354C0F08300BF00960000B00000202DE9F041F9
S11354D0BDF818703C4C54F820503C4C54F82060F3
S11354E0AC68A4B27078042803D16400A4B200208C
S11354F005E0032803BF0134A4B2002001209AB9B7
S1135500B3F5004F54D8B7F5004F54D803FB04F259
S1135510C2F3CF3207FB04F7C7F3CF37B3F5004F1D
S113552007D1531C9BB205E09C4247D3BC4248D3ED
S113553000E01346002845D14A08D5F864804FEAB4
S1135540C20C4FF0010E0EFA0CFE1EEA080F1AD020
S1135550D5F864E0802101FA0CF111EA0E0F07D0AE
S1135560296811F0180F06D105EB02110B6102E056
S113557005EB02110B6153000133DBB2013305EB80
S1135580C3039F6008E02A6812F0200F18BF5B086D
S1135590013105EBC1018B60AB6D9DF81C20D2017C
S11355A0D2B223F080031343AB657480BDE8F0816D
S11355B00120BDE8F0810120BDE8F0810120BDE8B3
S11355C0F0810120BDE8F08100960000B0000020C9
S11355D02DE9F04F85B0B84B53F820301A460393A9
S11355E0B64B53F82040002A00F0B3825378002BC6
S11355F040F0B1820D460290236823F01803236023
S1135600236823F4007323602368636D43F0040369
S113561063658B7853700B78002B00F0B8804FF0E3
S113562000094FF0040B4FF0010A09EB89034FEA1C
S11356304308EA6812F81360636E7708FF000BFAF8
S113564007F223EA02036366EB684344587904EBE8
S1135650C603D96800F0010221F0040141EA820185
S1135660D960DA68C0F3400022F0080242EAC002BE
S1135670DA60DA6842F01002DA60DA6842F0200296
S1135680DA60236806F110020AFA02F21343236077
S11356906B69DB782BB1636E4022BA4013436366B7
S11356A005E0636E4022BA4023EA02036366626E39
S11356B02023BB4013436366636E0AFA07F223EAAE
S11356C002036366626E8023BB4022EA03036366BF
S11356D0EB684344204631461A79FFF7CDFAEB686C
S11356E043449A79002A30D00136F6B2236806F191
S11356F010020AFA02F213432360EB684344597917
S113570004EBC606F26801F0010322F0040242EA47
S11357108302F260F368C1F3400123F0080343EA13
S1135720C103F360F36843F01003F360F36843F0DC
S11357302003F360EB684344DB79012B0ED1626EE6
S11357400223BB401343636608E05B78012B236F9D
S11357500AFA06F20CBF934313432367EB68984499
S113576098F808302BB1626E1023BB401343636674
S113577005E0626E1023BB4022EA0303636609F16D
S113578001095FFA89F92B784B453FF64EAF6B78E8
S1135790002B00F0DD8000274FF004094FF00108D2
S11357A04FF0020B3E012B699B5D5908626EC800E5
S11357B009FA00FE22EA0E0262662A69324492F86D
S11357C00DA004EBC302D2F80CE00AF0010C2EF099
S11357D0040E4EEA8C0CC2F80CC0D2F80CE0CAF3EA
S11357E0400A2EF0080E4EEACA0EC2F80CE0D2F8B7
S11357F00CE04EF0100EC2F80CE0D2F80CE04EF0C3
S1135800200EC2F80CE0226803F1100E08FA0EFE16
S11358104EEA020222602A69324492F809E0BEF19B
S1135820000F2BD00133DBB2226803F1100E08FA0B
S11358300EFE4EEA020222602A69324492F80EC039
S113584004EBC303DA680CF0010A22F0040E4EEAFA
S11358508A02DA60DA68CCF3400C22F0080242EAE9
S1135860CC02DA602B6933449B7A012B636E0BFA0A
S113587000F20CBF13439343636613E0127A012AC8
S1135880226F08FA03FE0CBF22EA0E024EEA02025D
S1135890226722680133DBB2103308FA03F322EAE9
S11358A0030323606B69DB7853B1626E402383404A
S11358B0134363660AE000BFB000002000960000B6
S11358C0626E4023834022EA03036366626E2023F0
S11358D0834013436366636E08FA00F213436366FE
S11358E02B693344DB792BB1626E802383401343ED
S11358F0636605E0626E8023834022EA03036366E5
S11359002B6933449B792BB1626E1023834013437C
S1135910636605E0626E1023834022EA0303636634
S11359204FEA410A2B69334420465146DA7AFFF79D
S1135930A3F90AF101012B691E442046C9B2327B46
S1135940FFF79AF90137FFB26B78BB423FF62AAFF3
S1135950636D43F0020363656B69DA78002A62D0F1
S11359601B7823B1E36F43F40043E36703E0E36F81
S113597023F40043E367E36F6A699278120202F446
S1135980706223F470631343E367029B042B34BFF8
S11359904FF0040E4FF0020E0426002301271A468E
S11359A0686903EB43010144097931B3E16F07FAF4
S11359B003FC4CEA0101E167696903EB430001441C
S11359C0497929B1E16F07FA06F00143E16705E07F
S11359D0E16F07FA06F021EA0001E167696902EB69
S11359E042020A449279012AD4F888200CBF22EAA0
S11359F00C024CEA0202C4F8882001330136DAB200
S1135A009645CCD86B695B781BB1636D43F080031A
S1135A106365636D6A69D278520102F0600223F013
S1135A206003134363652368AA78042A0CBF202209
S1135A30002223F02003134323600298A968FFF790
S1135A40D1F8039B5880E36C1B0C1B04E364AB7814
S1135A50042B08D1A268039B5988130C1B0443EA46
S1135A605103A36008E0A268039B5B88013B99B2E1
S1135A70130C1B040B43A3602B78002B6DD0002761
S1135A80B84607EB87025600EB68991913F8129091
S1135A904B88CDF80080CDF80480029849464246F0
S1135AA0FFF714FDEB681E44B3796BB1F3795BB96E
S1135AB009F101017388CDF80080CDF804800298C3
S1135AC0C9B24246FFF702FD0137FFB22B78BB4251
S1135AD0D7D86B78A3B100263746DDF808803301A8
S1135AE02969CA18C95C5388928800920197404674
S1135AF03A46FFF7EBFC0136F6B26B78B342EED8C8
S1135B0018BBA36EEA7802F03F0223F03F0313436D
S1135B10A366A36E2A799201D2B223F0C003134381
S1135B20A366636D43F001036365636D43F008038B
S1135B3063652368039A1278D20002F0180223F0F6
S1135B4018031343236000200BE00023039A5370CF
S1135B5007E0012005E0012003E06B78002BBAD1B7
S1135B60CFE705B0BDE8F08FF8B51D46144B53F8E8
S1135B702060144B53F8207001291CD07B689A4292
S1135B8017D81146FFF72EF8024614E0520800E039
S1135B90013AB46891B2230C1B040B43B360B36D98
S1135BA0ED01EDB223F080031D43B5657A8000203A
S1135BB0F8BD0120F8BD7B78042BE9D1E6E700BFEE
S1135BC000960000B000002030B40E4C54F8205071
S1135BD071B1501E023B4C1E52FA84F210F8011FA0
S1135BE033F8024F013105EBC1018C609042F5D1CD
S1135BF09DF808301BB1AB6D43F08003AB6500200A
S1135C0030BC704700960000254B53F820305A6F83
S1135C1012F0800F1AD00120224A107019665A6FB0
S1135C2022F081025A675A6F22F082025A675A6F31
S1135C3022F084025A675A6F22F088025A675A6F18
S1135C401A6822F400721A601B687047154A1278A9
S1135C5022B3D3F8942022F0FF02C3F89420D3F89F
S1135C60942022F47F42C3F89420D3F89420C9B23C
S1135C7022F0FF020A43C3F89420D3F8942022F4BC
S1135C807F4242EA0121C3F8941000221A660549B2
S1135C900A701A6822F400721A601B68704700BF09
S1135CA000960000C000002072B110B4144600F148
S1135CB01003084A52F8233023601030054B43F890
S1135CC020105DF8044B70471030024B43F820104D
S1135CD0704700BF0080FF1F410900F01F0001232F
S1135CE08340024A42F82130704700BF00E100E0DF
